S00F0000617474696E79312E737265634B
S113000019C028C027C026C025C024C023C022C0D0
S113001021C020C01FC01EC01DC01CC01BC01AC0F0
S113002019C018C017C016C015C014C013C012C020
S113003011C010C011241FBECFEFCDBFDFE3DEBF60
S11300402FE3A0E8BFE301C01D92A138B207E1F796
S113005002D022C2D5CFCF93DF93CDB7DEB76D9751
S1130060CDBFDEBF8091803F8F5F8093803F80E073
S113007094E024E0FC01218388E78983EDC080E0DB
S113008094E020E034E0F90125812460FC0125831B
S113009080E090E0A8E4B2E48A839B83AC83BD83D0
S11300A024E535E540E554E46A817B818C819D81BA
S11300B05ED1DC01CB018C8B9D8BAE8BBF8B20E0A2
S11300C030E040E85FE36C897D898E899F89C9D0DF
S11300D088232CF481E090E0888F998F3BC020E046
S11300E03FEF4FE757E46C897D898E899F893AD128
S11300F018163CF520E030E040E251E46A817B814F
S11301008C819D8134D1DC01CB01BC01CD01AED009
S1130110DC01CB01888F998F0FC083E590E08A8F33
S11301209B8F8A8D9B8D0197F1F78A8F9B8F888D8A
S1130130998D0197888F998F888D998D892B69F76F
S113014013C06C897D898E899F8990D0DC01CB0195
S1130150888F998F888D998D8C8F9D8F8C8D9D8D97
S11301600197F1F78C8F9D8F80E094E020E034E0DC
S1130170F90126812460FC01268380E090E0A8E454
S1130180B2E48E839F83A887B98724E535E540E5EB
S113019054E46E817F8188859985E9D0DC01CB01A7
S11301A08A879B87AC87BD8720E030E040E85FE327
S11301B06A857B858C859D8554D088232CF481E0C9
S11301C090E08E879F873BC020E03FEF4FE757E4E6
S11301D06A857B858C859D85C5D018163CF520E005
S11301E030E040E251E46E817F8188859985BFD0FB
S11301F0DC01CB01BC01CD0139D0DC01CB018E8700
S11302009F870FC083E590E0888B998B88899989B3
S11302100197F1F7888B998B8E859F8501978E873F
S11302209F878E859F85892B69F713C06A857B8597
S11302308C859D851BD0DC01CB018E879F878E85A5
S11302409F858A8B9B8B8A899B890197F1F78A8B7F
S11302509B8B89818F5F89838981883C08F40FCFC8
S1130260FFCF0E94650108F481E008950E94910186
S113027088F09F5798F0B92F9927B751B0F0E1F063
S1130280660F771F881F991F1AF0BA95C9F714C013
S1130290B13091F00E94AB01B1E008950C94AB0130
S11302A0672F782F8827B85F39F0B93FCCF386954C
S11302B077956795B395D9F73EF4909580957095A9
S11302C061957F4F8F4F9F4F0895990F0008550FE9
S11302D0AA0BE0E8FEEF16161706E807F907C0F0C8
S11302E012161306E407F50798F0621B730B840BD0
S11302F0950B39F40A2661F0232B242B252B21F4AA
S113030008950A2609F4A140A6958FEF811D811D49
S1130310089557FD9058440F551F59F05F3F71F0F1
S11303204795880F97FB991F61F09F3F79F0879558
S11303300895121613061406551FF2CF4695F1DFE1
S113034008C0161617061806991FF1CF8695710571
S1130350610508940895E894BB2766277727CB01A5
S113036097F908950E94650108F48FEF08950E949B
S1130370CA010C943B020E942D0238F00E94340200
S113038020F0952311F00C9424020C942A021124D9
S11303900C94AC010E94890170F3959FC1F3950FF1
S11303A050E0551F629FF001729FBB27F00DB11DF5
S11303B0639FAA27F00DB11DAA1F649F6627B00D85
S11303C0A11D661F829F2227B00DA11D621F739F6E
S11303D0B00DA11D621F839FA00D611D221F749F7C
S11303E03327A00D611D231F849F600D211D822FC3
S11303F0762F6A2F11249F5750409AF0F1F08823EA
S11304004AF0EE0FFF1FBB1F661F771F881F915016
S11304105040A9F79E3F510580F00C9424020C949F
S1130420AC015F3FE4F3983ED4F3869577956795E6
S1130430B795F795E7959F5FC1F7FE2B880F911D40
S11304409695879597F9089597F99F6780E870E0E6
S113045060E008959FEF80EC089500240A94161636
S1130460170618060906089500240A94121613069E
S1130470140605060895092E0394000C11F488232C
S113048052F0BB0F40F4BF2B11F460FF04C06F5F48
S10F04907F4F8F4F9F4F0895F894FFCFCB
S9030000FC
